{
  "_format": "hh-sol-artifact-1",
  "contractName": "AchievementSBT",
  "sourceName": "smarts/AchievementSBT.sol",
  "abi": [
    {
      "inputs": [
        {
          "internalType": "address",
          "name": "initialOwner",
          "type": "address"
        }
      ],
      "stateMutability": "nonpayable",
      "type": "constructor"
    },
    {
      "inputs": [
        {
          "internalType": "address",
          "name": "sender",
          "type": "address"
        },
        {
          "internalType": "uint256",
          "name": "tokenId",
          "type": "uint256"
        },
        {
          "internalType": "address",
          "name": "owner",
          "type": "address"
        }
      ],
      "name": "ERC721IncorrectOwner",
      "type": "error"
    },
    {
      "inputs": [
        {
          "internalType": "address",
          "name": "operator",
          "type": "address"
        },
        {
          "internalType": "uint256",
          "name": "tokenId",
          "type": "uint256"
        }
      ],
      "name": "ERC721InsufficientApproval",
      "type": "error"
    },
    {
      "inputs": [
        {
          "internalType": "address",
          "name": "approver",
          "type": "address"
        }
      ],
      "name": "ERC721InvalidApprover",
      "type": "error"
    },
    {
      "inputs": [
        {
          "internalType": "address",
          "name": "operator",
          "type": "address"
        }
      ],
      "name": "ERC721InvalidOperator",
      "type": "error"
    },
    {
      "inputs": [
        {
          "internalType": "address",
          "name": "owner",
          "type": "address"
        }
      ],
      "name": "ERC721InvalidOwner",
      "type": "error"
    },
    {
      "inputs": [
        {
          "internalType": "address",
          "name": "receiver",
          "type": "address"
        }
      ],
      "name": "ERC721InvalidReceiver",
      "type": "error"
    },
    {
      "inputs": [
        {
          "internalType": "address",
          "name": "sender",
          "type": "address"
        }
      ],
      "name": "ERC721InvalidSender",
      "type": "error"
    },
    {
      "inputs": [
        {
          "internalType": "uint256",
          "name": "tokenId",
          "type": "uint256"
        }
      ],
      "name": "ERC721NonexistentToken",
      "type": "error"
    },
    {
      "inputs": [
        {
          "internalType": "address",
          "name": "owner",
          "type": "address"
        }
      ],
      "name": "OwnableInvalidOwner",
      "type": "error"
    },
    {
      "inputs": [
        {
          "internalType": "address",
          "name": "account",
          "type": "address"
        }
      ],
      "name": "OwnableUnauthorizedAccount",
      "type": "error"
    },
    {
      "anonymous": false,
      "inputs": [
        {
          "indexed": true,
          "internalType": "address",
          "name": "owner",
          "type": "address"
        },
        {
          "indexed": true,
          "internalType": "address",
          "name": "approved",
          "type": "address"
        },
        {
          "indexed": true,
          "internalType": "uint256",
          "name": "tokenId",
          "type": "uint256"
        }
      ],
      "name": "Approval",
      "type": "event"
    },
    {
      "anonymous": false,
      "inputs": [
        {
          "indexed": true,
          "internalType": "address",
          "name": "owner",
          "type": "address"
        },
        {
          "indexed": true,
          "internalType": "address",
          "name": "operator",
          "type": "address"
        },
        {
          "indexed": false,
          "internalType": "bool",
          "name": "approved",
          "type": "bool"
        }
      ],
      "name": "ApprovalForAll",
      "type": "event"
    },
    {
      "anonymous": false,
      "inputs": [
        {
          "indexed": false,
          "internalType": "uint256",
          "name": "_fromTokenId",
          "type": "uint256"
        },
        {
          "indexed": false,
          "internalType": "uint256",
          "name": "_toTokenId",
          "type": "uint256"
        }
      ],
      "name": "BatchMetadataUpdate",
      "type": "event"
    },
    {
      "anonymous": false,
      "inputs": [
        {
          "indexed": false,
          "internalType": "uint256",
          "name": "_tokenId",
          "type": "uint256"
        }
      ],
      "name": "MetadataUpdate",
      "type": "event"
    },
    {
      "anonymous": false,
      "inputs": [
        {
          "indexed": true,
          "internalType": "address",
          "name": "previousOwner",
          "type": "address"
        },
        {
          "indexed": true,
          "internalType": "address",
          "name": "newOwner",
          "type": "address"
        }
      ],
      "name": "OwnershipTransferred",
      "type": "event"
    },
    {
      "anonymous": false,
      "inputs": [
        {
          "indexed": true,
          "internalType": "address",
          "name": "from",
          "type": "address"
        },
        {
          "indexed": true,
          "internalType": "address",
          "name": "to",
          "type": "address"
        },
        {
          "indexed": true,
          "internalType": "uint256",
          "name": "tokenId",
          "type": "uint256"
        }
      ],
      "name": "Transfer",
      "type": "event"
    },
    {
      "inputs": [
        {
          "internalType": "address",
          "name": "to",
          "type": "address"
        },
        {
          "internalType": "uint256",
          "name": "tokenId",
          "type": "uint256"
        }
      ],
      "name": "approve",
      "outputs": [],
      "stateMutability": "nonpayable",
      "type": "function"
    },
    {
      "inputs": [
        {
          "internalType": "address",
          "name": "owner",
          "type": "address"
        }
      ],
      "name": "balanceOf",
      "outputs": [
        {
          "internalType": "uint256",
          "name": "",
          "type": "uint256"
        }
      ],
      "stateMutability": "view",
      "type": "function"
    },
    {
      "inputs": [
        {
          "internalType": "uint256",
          "name": "tokenId",
          "type": "uint256"
        }
      ],
      "name": "getApproved",
      "outputs": [
        {
          "internalType": "address",
          "name": "",
          "type": "address"
        }
      ],
      "stateMutability": "view",
      "type": "function"
    },
    {
      "inputs": [
        {
          "internalType": "address",
          "name": "",
          "type": "address"
        },
        {
          "internalType": "string",
          "name": "",
          "type": "string"
        }
      ],
      "name": "hasAchievement",
      "outputs": [
        {
          "internalType": "bool",
          "name": "",
          "type": "bool"
        }
      ],
      "stateMutability": "view",
      "type": "function"
    },
    {
      "inputs": [
        {
          "internalType": "address",
          "name": "owner",
          "type": "address"
        },
        {
          "internalType": "address",
          "name": "operator",
          "type": "address"
        }
      ],
      "name": "isApprovedForAll",
      "outputs": [
        {
          "internalType": "bool",
          "name": "",
          "type": "bool"
        }
      ],
      "stateMutability": "view",
      "type": "function"
    },
    {
      "inputs": [
        {
          "internalType": "address",
          "name": "to",
          "type": "address"
        },
        {
          "internalType": "string",
          "name": "achievementId",
          "type": "string"
        },
        {
          "internalType": "string",
          "name": "uri",
          "type": "string"
        }
      ],
      "name": "mint",
      "outputs": [],
      "stateMutability": "nonpayable",
      "type": "function"
    },
    {
      "inputs": [],
      "name": "name",
      "outputs": [
        {
          "internalType": "string",
          "name": "",
          "type": "string"
        }
      ],
      "stateMutability": "view",
      "type": "function"
    },
    {
      "inputs": [],
      "name": "nextTokenId",
      "outputs": [
        {
          "internalType": "uint256",
          "name": "",
          "type": "uint256"
        }
      ],
      "stateMutability": "view",
      "type": "function"
    },
    {
      "inputs": [],
      "name": "owner",
      "outputs": [
        {
          "internalType": "address",
          "name": "",
          "type": "address"
        }
      ],
      "stateMutability": "view",
      "type": "function"
    },
    {
      "inputs": [
        {
          "internalType": "uint256",
          "name": "tokenId",
          "type": "uint256"
        }
      ],
      "name": "ownerOf",
      "outputs": [
        {
          "internalType": "address",
          "name": "",
          "type": "address"
        }
      ],
      "stateMutability": "view",
      "type": "function"
    },
    {
      "inputs": [],
      "name": "renounceOwnership",
      "outputs": [],
      "stateMutability": "nonpayable",
      "type": "function"
    },
    {
      "inputs": [
        {
          "internalType": "address",
          "name": "from",
          "type": "address"
        },
        {
          "internalType": "address",
          "name": "to",
          "type": "address"
        },
        {
          "internalType": "uint256",
          "name": "tokenId",
          "type": "uint256"
        }
      ],
      "name": "safeTransferFrom",
      "outputs": [],
      "stateMutability": "nonpayable",
      "type": "function"
    },
    {
      "inputs": [
        {
          "internalType": "address",
          "name": "from",
          "type": "address"
        },
        {
          "internalType": "address",
          "name": "to",
          "type": "address"
        },
        {
          "internalType": "uint256",
          "name": "tokenId",
          "type": "uint256"
        },
        {
          "internalType": "bytes",
          "name": "data",
          "type": "bytes"
        }
      ],
      "name": "safeTransferFrom",
      "outputs": [],
      "stateMutability": "nonpayable",
      "type": "function"
    },
    {
      "inputs": [
        {
          "internalType": "address",
          "name": "operator",
          "type": "address"
        },
        {
          "internalType": "bool",
          "name": "approved",
          "type": "bool"
        }
      ],
      "name": "setApprovalForAll",
      "outputs": [],
      "stateMutability": "nonpayable",
      "type": "function"
    },
    {
      "inputs": [
        {
          "internalType": "bytes4",
          "name": "interfaceId",
          "type": "bytes4"
        }
      ],
      "name": "supportsInterface",
      "outputs": [
        {
          "internalType": "bool",
          "name": "",
          "type": "bool"
        }
      ],
      "stateMutability": "view",
      "type": "function"
    },
    {
      "inputs": [],
      "name": "symbol",
      "outputs": [
        {
          "internalType": "string",
          "name": "",
          "type": "string"
        }
      ],
      "stateMutability": "view",
      "type": "function"
    },
    {
      "inputs": [
        {
          "internalType": "uint256",
          "name": "tokenId",
          "type": "uint256"
        }
      ],
      "name": "tokenURI",
      "outputs": [
        {
          "internalType": "string",
          "name": "",
          "type": "string"
        }
      ],
      "stateMutability": "view",
      "type": "function"
    },
    {
      "inputs": [
        {
          "internalType": "address",
          "name": "from",
          "type": "address"
        },
        {
          "internalType": "address",
          "name": "to",
          "type": "address"
        },
        {
          "internalType": "uint256",
          "name": "tokenId",
          "type": "uint256"
        }
      ],
      "name": "transferFrom",
      "outputs": [],
      "stateMutability": "nonpayable",
      "type": "function"
    },
    {
      "inputs": [
        {
          "internalType": "address",
          "name": "newOwner",
          "type": "address"
        }
      ],
      "name": "transferOwnership",
      "outputs": [],
      "stateMutability": "nonpayable",
      "type": "function"
    }
  ],
  "bytecode": "0x60806040523480156200001157600080fd5b506040516200307838038062003078833981810160405281019062000037919062000288565b806040518060400160405280600f81526020017f4b6f6d61416368696576656d656e7400000000000000000000000000000000008152506040518060400160405280600681526020017f4b4f4d53425400000000000000000000000000000000000000000000000000008152508160009081620000b5919062000534565b508060019081620000c7919062000534565b505050600073ffffffffffffffffffffffffffffffffffffffff168173ffffffffffffffffffffffffffffffffffffffff16036200013f5760006040517f1e4fbdf70000000000000000000000000000000000000000000000000000000081526004016200013691906200062c565b60405180910390fd5b62000150816200015860201b60201c565b505062000649565b6000600760009054906101000a900473ffffffffffffffffffffffffffffffffffffffff16905081600760006101000a81548173ffffffffffffffffffffffffffffffffffffffff021916908373ffffffffffffffffffffffffffffffffffffffff1602179055508173ffffffffffffffffffffffffffffffffffffffff168173ffffffffffffffffffffffffffffffffffffffff167f8be0079c531659141344cd1fd0a4f28419497f9722a3daafe3b4186f6b6457e060405160405180910390a35050565b600080fd5b600073ffffffffffffffffffffffffffffffffffffffff82169050919050565b6000620002508262000223565b9050919050565b620002628162000243565b81146200026e57600080fd5b50565b600081519050620002828162000257565b92915050565b600060208284031215620002a157620002a06200021e565b5b6000620002b18482850162000271565b91505092915050565b600081519050919050565b7f4e487b7100000000000000000000000000000000000000000000000000000000600052604160045260246000fd5b7f4e487b7100000000000000000000000000000000000000000000000000000000600052602260045260246000fd5b600060028204905060018216806200033c57607f821691505b602082108103620003525762000351620002f4565b5b50919050565b60008190508160005260206000209050919050565b60006020601f8301049050919050565b600082821b905092915050565b600060088302620003bc7fffffffffffffffffffffffffffffffffffffffffffffffffffffffffffffffff826200037d565b620003c886836200037d565b95508019841693508086168417925050509392505050565b6000819050919050565b6000819050919050565b6000620004156200040f6200040984620003e0565b620003ea565b620003e0565b9050919050565b6000819050919050565b6200043183620003f4565b6200044962000440826200041c565b8484546200038a565b825550505050565b600090565b6200046062000451565b6200046d81848462000426565b505050565b5b8181101562000495576200048960008262000456565b60018101905062000473565b5050565b601f821115620004e457620004ae8162000358565b620004b9846200036d565b81016020851015620004c9578190505b620004e1620004d8856200036d565b83018262000472565b50505b505050565b600082821c905092915050565b60006200050960001984600802620004e9565b1980831691505092915050565b6000620005248383620004f6565b9150826002028217905092915050565b6200053f82620002ba565b67ffffffffffffffff8111156200055b576200055a620002c5565b5b62000567825462000323565b6200057482828562000499565b600060209050601f831160018114620005ac576000841562000597578287015190505b620005a3858262000516565b86555062000613565b601f198416620005bc8662000358565b60005b82811015620005e657848901518255600182019150602085019450602081019050620005bf565b8683101562000606578489015162000602601f891682620004f6565b8355505b6001600288020188555050505b505050505050565b620006268162000243565b82525050565b60006020820190506200064360008301846200061b565b92915050565b612a1f80620006596000396000f3fe608060405234801561001057600080fd5b50600436106101215760003560e01c806375794a3c116100ad578063b88d4fde11610071578063b88d4fde146102f4578063b9a626ed14610310578063c87b56dd14610340578063e985e9c514610370578063f2fde38b146103a057610121565b806375794a3c146102625780638da5cb5b1461028057806395d89b411461029e57806399071190146102bc578063a22cb465146102d857610121565b806323b872dd116100f457806323b872dd146101c057806342842e0e146101dc5780636352211e146101f857806370a0823114610228578063715018a61461025857610121565b806301ffc9a71461012657806306fdde0314610156578063081812fc14610174578063095ea7b3146101a4575b600080fd5b610140600480360381019061013b9190611cfd565b6103bc565b60405161014d9190611d45565b60405180910390f35b61015e6103ce565b60405161016b9190611df0565b60405180910390f35b61018e60048036038101906101899190611e48565b610460565b60405161019b9190611eb6565b60405180910390f35b6101be60048036038101906101b99190611efd565b61047c565b005b6101da60048036038101906101d59190611f3d565b610492565b005b6101f660048036038101906101f19190611f3d565b610594565b005b610212600480360381019061020d9190611e48565b6105b4565b60405161021f9190611eb6565b60405180910390f35b610242600480360381019061023d9190611f90565b6105c6565b60405161024f9190611fcc565b60405180910390f35b610260610680565b005b61026a610694565b6040516102779190611fcc565b60405180910390f35b61028861069a565b6040516102959190611eb6565b60405180910390f35b6102a66106c4565b6040516102b39190611df0565b60405180910390f35b6102d660048036038101906102d1919061211c565b610756565b005b6102f260048036038101906102ed91906121d3565b6108b0565b005b61030e600480360381019061030991906122b4565b6108c6565b005b61032a60048036038101906103259190612337565b6108eb565b6040516103379190611d45565b60405180910390f35b61035a60048036038101906103559190611e48565b610930565b6040516103679190611df0565b60405180910390f35b61038a60048036038101906103859190612393565b610942565b6040516103979190611d45565b60405180910390f35b6103ba60048036038101906103b59190611f90565b6109d6565b005b60006103c782610a5c565b9050919050565b6060600080546103dd90612402565b80601f016020809104026020016040519081016040528092919081815260200182805461040990612402565b80156104565780601f1061042b57610100808354040283529160200191610456565b820191906000526020600020905b81548152906001019060200180831161043957829003601f168201915b5050505050905090565b600061046b82610abd565b5061047582610b45565b9050919050565b61048e8282610489610b82565b610b8a565b5050565b600073ffffffffffffffffffffffffffffffffffffffff168273ffffffffffffffffffffffffffffffffffffffff16036105045760006040517f64a0ae920000000000000000000000000000000000000000000000000000000081526004016104fb9190611eb6565b60405180910390fd5b60006105188383610513610b82565b610b9c565b90508373ffffffffffffffffffffffffffffffffffffffff168173ffffffffffffffffffffffffffffffffffffffff161461058e578382826040517f64283d7b00000000000000000000000000000000000000000000000000000000815260040161058593929190612433565b60405180910390fd5b50505050565b6105af838383604051806020016040528060008152506108c6565b505050565b60006105bf82610abd565b9050919050565b60008073ffffffffffffffffffffffffffffffffffffffff168273ffffffffffffffffffffffffffffffffffffffff16036106395760006040517f89c62b640000000000000000000000000000000000000000000000000000000081526004016106309190611eb6565b60405180910390fd5b600360008373ffffffffffffffffffffffffffffffffffffffff1673ffffffffffffffffffffffffffffffffffffffff168152602001908152602001600020549050919050565b610688610c2e565b6106926000610cb5565b565b60085481565b6000600760009054906101000a900473ffffffffffffffffffffffffffffffffffffffff16905090565b6060600180546106d390612402565b80601f01602080910402602001604051908101604052809291908181526020018280546106ff90612402565b801561074c5780601f106107215761010080835404028352916020019161074c565b820191906000526020600020905b81548152906001019060200180831161072f57829003601f168201915b5050505050905090565b61075e610c2e565b600960008473ffffffffffffffffffffffffffffffffffffffff1673ffffffffffffffffffffffffffffffffffffffff168152602001908152602001600020826040516107ab91906124a6565b908152602001604051809103902060009054906101000a900460ff1615610807576040517f08c379a00000000000000000000000000000000000000000000000000000000081526004016107fe90612509565b60405180910390fd5b60006008600081548092919061081c90612558565b91905055905061082c8482610d7b565b6108368183610e74565b6001600960008673ffffffffffffffffffffffffffffffffffffffff1673ffffffffffffffffffffffffffffffffffffffff1681526020019081526020016000208460405161088591906124a6565b908152602001604051809103902060006101000a81548160ff02191690831515021790555050505050565b6108c26108bb610b82565b8383610ed0565b5050565b6108d1848484610492565b6108e56108dc610b82565b8585858561103f565b50505050565b6009602052816000526040600020818051602081018201805184825260208301602085012081835280955050505050506000915091509054906101000a900460ff1681565b606061093b826111f0565b9050919050565b6000600560008473ffffffffffffffffffffffffffffffffffffffff1673ffffffffffffffffffffffffffffffffffffffff16815260200190815260200160002060008373ffffffffffffffffffffffffffffffffffffffff1673ffffffffffffffffffffffffffffffffffffffff16815260200190815260200160002060009054906101000a900460ff16905092915050565b6109de610c2e565b600073ffffffffffffffffffffffffffffffffffffffff168173ffffffffffffffffffffffffffffffffffffffff1603610a505760006040517f1e4fbdf7000000000000000000000000000000000000000000000000000000008152600401610a479190611eb6565b60405180910390fd5b610a5981610cb5565b50565b6000634906490660e01b7bffffffffffffffffffffffffffffffffffffffffffffffffffffffff1916827bffffffffffffffffffffffffffffffffffffffffffffffffffffffff19161480610ab65750610ab582611303565b5b9050919050565b600080610ac9836113e5565b9050600073ffffffffffffffffffffffffffffffffffffffff168173ffffffffffffffffffffffffffffffffffffffff1603610b3c57826040517f7e273289000000000000000000000000000000000000000000000000000000008152600401610b339190611fcc565b60405180910390fd5b80915050919050565b60006004600083815260200190815260200160002060009054906101000a900473ffffffffffffffffffffffffffffffffffffffff169050919050565b600033905090565b610b978383836001611422565b505050565b600080610ba8846113e5565b9050600073ffffffffffffffffffffffffffffffffffffffff168173ffffffffffffffffffffffffffffffffffffffff1614610c19576040517f08c379a0000000000000000000000000000000000000000000000000000000008152600401610c10906125ec565b60405180910390fd5b610c248585856115e7565b9150509392505050565b610c36610b82565b73ffffffffffffffffffffffffffffffffffffffff16610c5461069a565b73ffffffffffffffffffffffffffffffffffffffff1614610cb357610c77610b82565b6040517f118cdaa7000000000000000000000000000000000000000000000000000000008152600401610caa9190611eb6565b60405180910390fd5b565b6000600760009054906101000a900473ffffffffffffffffffffffffffffffffffffffff16905081600760006101000a81548173ffffffffffffffffffffffffffffffffffffffff021916908373ffffffffffffffffffffffffffffffffffffffff1602179055508173ffffffffffffffffffffffffffffffffffffffff168173ffffffffffffffffffffffffffffffffffffffff167f8be0079c531659141344cd1fd0a4f28419497f9722a3daafe3b4186f6b6457e060405160405180910390a35050565b600073ffffffffffffffffffffffffffffffffffffffff168273ffffffffffffffffffffffffffffffffffffffff1603610ded5760006040517f64a0ae92000000000000000000000000000000000000000000000000000000008152600401610de49190611eb6565b60405180910390fd5b6000610dfb83836000610b9c565b9050600073ffffffffffffffffffffffffffffffffffffffff168173ffffffffffffffffffffffffffffffffffffffff1614610e6f5760006040517f73c6ac6e000000000000000000000000000000000000000000000000000000008152600401610e669190611eb6565b60405180910390fd5b505050565b80600660008481526020019081526020016000209081610e9491906127b8565b507ff8e1a15aba9398e019f0b49df1a4fde98ee17ae345cb5f6b5e2c27f5033e8ce782604051610ec49190611fcc565b60405180910390a15050565b600073ffffffffffffffffffffffffffffffffffffffff168273ffffffffffffffffffffffffffffffffffffffff1603610f4157816040517f5b08ba18000000000000000000000000000000000000000000000000000000008152600401610f389190611eb6565b60405180910390fd5b80600560008573ffffffffffffffffffffffffffffffffffffffff1673ffffffffffffffffffffffffffffffffffffffff16815260200190815260200160002060008473ffffffffffffffffffffffffffffffffffffffff1673ffffffffffffffffffffffffffffffffffffffff16815260200190815260200160002060006101000a81548160ff0219169083151502179055508173ffffffffffffffffffffffffffffffffffffffff168373ffffffffffffffffffffffffffffffffffffffff167f17307eab39ab6107e8899845ad3d59bd9653f200f220920489ca2b5937696c31836040516110329190611d45565b60405180910390a3505050565b60008373ffffffffffffffffffffffffffffffffffffffff163b11156111e9578273ffffffffffffffffffffffffffffffffffffffff1663150b7a02868685856040518563ffffffff1660e01b815260040161109e94939291906128df565b6020604051808303816000875af19250505080156110da57506040513d601f19601f820116820180604052508101906110d79190612940565b60015b61115e573d806000811461110a576040519150601f19603f3d011682016040523d82523d6000602084013e61110f565b606091505b50600081510361115657836040517f64a0ae9200000000000000000000000000000000000000000000000000000000815260040161114d9190611eb6565b60405180910390fd5b805181602001fd5b63150b7a0260e01b7bffffffffffffffffffffffffffffffffffffffffffffffffffffffff1916817bffffffffffffffffffffffffffffffffffffffffffffffffffffffff1916146111e757836040517f64a0ae920000000000000000000000000000000000000000000000000000000081526004016111de9190611eb6565b60405180910390fd5b505b5050505050565b60606111fb82610abd565b50600060066000848152602001908152602001600020805461121c90612402565b80601f016020809104026020016040519081016040528092919081815260200182805461124890612402565b80156112955780601f1061126a57610100808354040283529160200191611295565b820191906000526020600020905b81548152906001019060200180831161127857829003601f168201915b5050505050905060006112a6611801565b905060008151036112bb5781925050506112fe565b6000825111156112f05780826040516020016112d892919061296d565b604051602081830303815290604052925050506112fe565b6112f984611818565b925050505b919050565b60007f80ac58cd000000000000000000000000000000000000000000000000000000007bffffffffffffffffffffffffffffffffffffffffffffffffffffffff1916827bffffffffffffffffffffffffffffffffffffffffffffffffffffffff191614806113ce57507f5b5e139f000000000000000000000000000000000000000000000000000000007bffffffffffffffffffffffffffffffffffffffffffffffffffffffff1916827bffffffffffffffffffffffffffffffffffffffffffffffffffffffff1916145b806113de57506113dd82611881565b5b9050919050565b60006002600083815260200190815260200160002060009054906101000a900473ffffffffffffffffffffffffffffffffffffffff169050919050565b808061145b5750600073ffffffffffffffffffffffffffffffffffffffff168273ffffffffffffffffffffffffffffffffffffffff1614155b1561158f57600061146b84610abd565b9050600073ffffffffffffffffffffffffffffffffffffffff168373ffffffffffffffffffffffffffffffffffffffff16141580156114d657508273ffffffffffffffffffffffffffffffffffffffff168173ffffffffffffffffffffffffffffffffffffffff1614155b80156114e957506114e78184610942565b155b1561152b57826040517fa9fbf51f0000000000000000000000000000000000000000000000000000000081526004016115229190611eb6565b60405180910390fd5b811561158d57838573ffffffffffffffffffffffffffffffffffffffff168273ffffffffffffffffffffffffffffffffffffffff167f8c5be1e5ebec7d5bd14f71427d1e84f3dd0314c0f7b2291e5b200ac8c7c3b92560405160405180910390a45b505b836004600085815260200190815260200160002060006101000a81548173ffffffffffffffffffffffffffffffffffffffff021916908373ffffffffffffffffffffffffffffffffffffffff16021790555050505050565b6000806115f3846113e5565b9050600073ffffffffffffffffffffffffffffffffffffffff168373ffffffffffffffffffffffffffffffffffffffff1614611635576116348184866118eb565b5b600073ffffffffffffffffffffffffffffffffffffffff168173ffffffffffffffffffffffffffffffffffffffff16146116c657611677600085600080611422565b6001600360008373ffffffffffffffffffffffffffffffffffffffff1673ffffffffffffffffffffffffffffffffffffffff168152602001908152602001600020600082825403925050819055505b600073ffffffffffffffffffffffffffffffffffffffff168573ffffffffffffffffffffffffffffffffffffffff1614611749576001600360008773ffffffffffffffffffffffffffffffffffffffff1673ffffffffffffffffffffffffffffffffffffffff168152602001908152602001600020600082825401925050819055505b846002600086815260200190815260200160002060006101000a81548173ffffffffffffffffffffffffffffffffffffffff021916908373ffffffffffffffffffffffffffffffffffffffff160217905550838573ffffffffffffffffffffffffffffffffffffffff168273ffffffffffffffffffffffffffffffffffffffff167fddf252ad1be2c89b69c2b068fc378daa952ba7f163c4a11628f55a4df523b3ef60405160405180910390a4809150509392505050565b606060405180602001604052806000815250905090565b606061182382610abd565b50600061182e611801565b9050600081511161184e5760405180602001604052806000815250611879565b80611858846119af565b60405160200161186992919061296d565b6040516020818303038152906040525b915050919050565b60007f01ffc9a7000000000000000000000000000000000000000000000000000000007bffffffffffffffffffffffffffffffffffffffffffffffffffffffff1916827bffffffffffffffffffffffffffffffffffffffffffffffffffffffff1916149050919050565b6118f6838383611a7d565b6119aa57600073ffffffffffffffffffffffffffffffffffffffff168373ffffffffffffffffffffffffffffffffffffffff160361196b57806040517f7e2732890000000000000000000000000000000000000000000000000000000081526004016119629190611fcc565b60405180910390fd5b81816040517f177e802f0000000000000000000000000000000000000000000000000000000081526004016119a1929190612991565b60405180910390fd5b505050565b6060600060016119be84611b3e565b01905060008167ffffffffffffffff8111156119dd576119dc611ff1565b5b6040519080825280601f01601f191660200182016040528015611a0f5781602001600182028036833780820191505090505b509050600082602001820190505b600115611a72578080600190039150507f3031323334353637383961626364656600000000000000000000000000000000600a86061a8153600a8581611a6657611a656129ba565b5b04945060008503611a1d575b819350505050919050565b60008073ffffffffffffffffffffffffffffffffffffffff168373ffffffffffffffffffffffffffffffffffffffff1614158015611b3557508273ffffffffffffffffffffffffffffffffffffffff168473ffffffffffffffffffffffffffffffffffffffff161480611af65750611af58484610942565b5b80611b3457508273ffffffffffffffffffffffffffffffffffffffff16611b1c83610b45565b73ffffffffffffffffffffffffffffffffffffffff16145b5b90509392505050565b600080600090507a184f03e93ff9f4daa797ed6e38ed64bf6a1f0100000000000000008310611b9c577a184f03e93ff9f4daa797ed6e38ed64bf6a1f0100000000000000008381611b9257611b916129ba565b5b0492506040810190505b6d04ee2d6d415b85acef81000000008310611bd9576d04ee2d6d415b85acef81000000008381611bcf57611bce6129ba565b5b0492506020810190505b662386f26fc100008310611c0857662386f26fc100008381611bfe57611bfd6129ba565b5b0492506010810190505b6305f5e1008310611c31576305f5e1008381611c2757611c266129ba565b5b0492506008810190505b6127108310611c56576127108381611c4c57611c4b6129ba565b5b0492506004810190505b60648310611c795760648381611c6f57611c6e6129ba565b5b0492506002810190505b600a8310611c88576001810190505b80915050919050565b6000604051905090565b600080fd5b600080fd5b60007fffffffff0000000000000000000000000000000000000000000000000000000082169050919050565b611cda81611ca5565b8114611ce557600080fd5b50565b600081359050611cf781611cd1565b92915050565b600060208284031215611d1357611d12611c9b565b5b6000611d2184828501611ce8565b91505092915050565b60008115159050919050565b611d3f81611d2a565b82525050565b6000602082019050611d5a6000830184611d36565b92915050565b600081519050919050565b600082825260208201905092915050565b60005b83811015611d9a578082015181840152602081019050611d7f565b60008484015250505050565b6000601f19601f8301169050919050565b6000611dc282611d60565b611dcc8185611d6b565b9350611ddc818560208601611d7c565b611de581611da6565b840191505092915050565b60006020820190508181036000830152611e0a8184611db7565b905092915050565b6000819050919050565b611e2581611e12565b8114611e3057600080fd5b50565b600081359050611e4281611e1c565b92915050565b600060208284031215611e5e57611e5d611c9b565b5b6000611e6c84828501611e33565b91505092915050565b600073ffffffffffffffffffffffffffffffffffffffff82169050919050565b6000611ea082611e75565b9050919050565b611eb081611e95565b82525050565b6000602082019050611ecb6000830184611ea7565b92915050565b611eda81611e95565b8114611ee557600080fd5b50565b600081359050611ef781611ed1565b92915050565b60008060408385031215611f1457611f13611c9b565b5b6000611f2285828601611ee8565b9250506020611f3385828601611e33565b9150509250929050565b600080600060608486031215611f5657611f55611c9b565b5b6000611f6486828701611ee8565b9350506020611f7586828701611ee8565b9250506040611f8686828701611e33565b9150509250925092565b600060208284031215611fa657611fa5611c9b565b5b6000611fb484828501611ee8565b91505092915050565b611fc681611e12565b82525050565b6000602082019050611fe16000830184611fbd565b92915050565b600080fd5b600080fd5b7f4e487b7100000000000000000000000000000000000000000000000000000000600052604160045260246000fd5b61202982611da6565b810181811067ffffffffffffffff8211171561204857612047611ff1565b5b80604052505050565b600061205b611c91565b90506120678282612020565b919050565b600067ffffffffffffffff82111561208757612086611ff1565b5b61209082611da6565b9050602081019050919050565b82818337600083830152505050565b60006120bf6120ba8461206c565b612051565b9050828152602081018484840111156120db576120da611fec565b5b6120e684828561209d565b509392505050565b600082601f83011261210357612102611fe7565b5b81356121138482602086016120ac565b91505092915050565b60008060006060848603121561213557612134611c9b565b5b600061214386828701611ee8565b935050602084013567ffffffffffffffff81111561216457612163611ca0565b5b612170868287016120ee565b925050604084013567ffffffffffffffff81111561219157612190611ca0565b5b61219d868287016120ee565b9150509250925092565b6121b081611d2a565b81146121bb57600080fd5b50565b6000813590506121cd816121a7565b92915050565b600080604083850312156121ea576121e9611c9b565b5b60006121f885828601611ee8565b9250506020612209858286016121be565b9150509250929050565b600067ffffffffffffffff82111561222e5761222d611ff1565b5b61223782611da6565b9050602081019050919050565b600061225761225284612213565b612051565b90508281526020810184848401111561227357612272611fec565b5b61227e84828561209d565b509392505050565b600082601f83011261229b5761229a611fe7565b5b81356122ab848260208601612244565b91505092915050565b600080600080608085870312156122ce576122cd611c9b565b5b60006122dc87828801611ee8565b94505060206122ed87828801611ee8565b93505060406122fe87828801611e33565b925050606085013567ffffffffffffffff81111561231f5761231e611ca0565b5b61232b87828801612286565b91505092959194509250565b6000806040838503121561234e5761234d611c9b565b5b600061235c85828601611ee8565b925050602083013567ffffffffffffffff81111561237d5761237c611ca0565b5b612389858286016120ee565b9150509250929050565b600080604083850312156123aa576123a9611c9b565b5b60006123b885828601611ee8565b92505060206123c985828601611ee8565b9150509250929050565b7f4e487b7100000000000000000000000000000000000000000000000000000000600052602260045260246000fd5b6000600282049050600182168061241a57607f821691505b60208210810361242d5761242c6123d3565b5b50919050565b60006060820190506124486000830186611ea7565b6124556020830185611fbd565b6124626040830184611ea7565b949350505050565b600081905092915050565b600061248082611d60565b61248a818561246a565b935061249a818560208601611d7c565b80840191505092915050565b60006124b28284612475565b915081905092915050565b7f416368696576656d656e7420616c726561647920636c61696d65640000000000600082015250565b60006124f3601b83611d6b565b91506124fe826124bd565b602082019050919050565b60006020820190508181036000830152612522816124e6565b9050919050565b7f4e487b7100000000000000000000000000000000000000000000000000000000600052601160045260246000fd5b600061256382611e12565b91507fffffffffffffffffffffffffffffffffffffffffffffffffffffffffffffffff820361259557612594612529565b5b600182019050919050565b7f536f756c626f756e643a206e6f6e2d7472616e7366657261626c650000000000600082015250565b60006125d6601b83611d6b565b91506125e1826125a0565b602082019050919050565b60006020820190508181036000830152612605816125c9565b9050919050565b60008190508160005260206000209050919050565b60006020601f8301049050919050565b600082821b905092915050565b60006008830261266e7fffffffffffffffffffffffffffffffffffffffffffffffffffffffffffffffff82612631565b6126788683612631565b95508019841693508086168417925050509392505050565b6000819050919050565b60006126b56126b06126ab84611e12565b612690565b611e12565b9050919050565b6000819050919050565b6126cf8361269a565b6126e36126db826126bc565b84845461263e565b825550505050565b600090565b6126f86126eb565b6127038184846126c6565b505050565b5b818110156127275761271c6000826126f0565b600181019050612709565b5050565b601f82111561276c5761273d8161260c565b61274684612621565b81016020851015612755578190505b61276961276185612621565b830182612708565b50505b505050565b600082821c905092915050565b600061278f60001984600802612771565b1980831691505092915050565b60006127a8838361277e565b9150826002028217905092915050565b6127c182611d60565b67ffffffffffffffff8111156127da576127d9611ff1565b5b6127e48254612402565b6127ef82828561272b565b600060209050601f8311600181146128225760008415612810578287015190505b61281a858261279c565b865550612882565b601f1984166128308661260c565b60005b8281101561285857848901518255600182019150602085019450602081019050612833565b868310156128755784890151612871601f89168261277e565b8355505b6001600288020188555050505b505050505050565b600081519050919050565b600082825260208201905092915050565b60006128b18261288a565b6128bb8185612895565b93506128cb818560208601611d7c565b6128d481611da6565b840191505092915050565b60006080820190506128f46000830187611ea7565b6129016020830186611ea7565b61290e6040830185611fbd565b818103606083015261292081846128a6565b905095945050505050565b60008151905061293a81611cd1565b92915050565b60006020828403121561295657612955611c9b565b5b60006129648482850161292b565b91505092915050565b60006129798285612475565b91506129858284612475565b91508190509392505050565b60006040820190506129a66000830185611ea7565b6129b36020830184611fbd565b9392505050565b7f4e487b7100000000000000000000000000000000000000000000000000000000600052601260045260246000fdfea264697066735822122039b7dad1b660f2241e4248e58b816b7bc17957fdd896e7802cf9564c62fe01fa64736f6c63430008140033",
  "linkReferences": {},
  "deployedLinkReferences": {}
}